{
  "contractName": "Sample",
  "abi": [
    {
      "inputs": [],
      "stateMutability": "nonpayable",
      "type": "constructor"
    },
    {
      "inputs": [],
      "name": "name",
      "outputs": [
        {
          "internalType": "string",
          "name": "",
          "type": "string"
        }
      ],
      "stateMutability": "view",
      "type": "function"
    },
    {
      "inputs": [],
      "name": "owner",
      "outputs": [
        {
          "internalType": "address",
          "name": "",
          "type": "address"
        }
      ],
      "stateMutability": "view",
      "type": "function"
    },
    {
      "inputs": [
        {
          "internalType": "string",
          "name": "_name",
          "type": "string"
        }
      ],
      "name": "rename",
      "outputs": [],
      "stateMutability": "nonpayable",
      "type": "function"
    },
    {
      "inputs": [],
      "name": "describe",
      "outputs": [
        {
          "internalType": "string",
          "name": "",
          "type": "string"
        }
      ],
      "stateMutability": "view",
      "type": "function"
    },
    {
      "inputs": [
        {
          "internalType": "address",
          "name": "_newOwner",
          "type": "address"
        }
      ],
      "name": "changeOwner",
      "outputs": [],
      "stateMutability": "nonpayable",
      "type": "function"
    },
    {
      "inputs": [],
      "name": "deposit",
      "outputs": [],
      "stateMutability": "payable",
      "type": "function"
    },
    {
      "inputs": [
        {
          "internalType": "uint256",
          "name": "_amount",
          "type": "uint256"
        }
      ],
      "name": "withdraw",
      "outputs": [],
      "stateMutability": "payable",
      "type": "function"
    }
  ],
  "bytecode": "0x60806040523480156200001157600080fd5b5033600160006101000a81548173ffffffffffffffffffffffffffffffffffffffff021916908373ffffffffffffffffffffffffffffffffffffffff1602179055506040518060400160405280600881526020017f6465706c6f796572000000000000000000000000000000000000000000000000815250600090816200009991906200031a565b5062000401565b600081519050919050565b7f4e487b7100000000000000000000000000000000000000000000000000000000600052604160045260246000fd5b7f4e487b7100000000000000000000000000000000000000000000000000000000600052602260045260246000fd5b600060028204905060018216806200012257607f821691505b602082108103620001385762000137620000da565b5b50919050565b60008190508160005260206000209050919050565b60006020601f8301049050919050565b600082821b905092915050565b600060088302620001a27fffffffffffffffffffffffffffffffffffffffffffffffffffffffffffffffff8262000163565b620001ae868362000163565b95508019841693508086168417925050509392505050565b6000819050919050565b6000819050919050565b6000620001fb620001f5620001ef84620001c6565b620001d0565b620001c6565b9050919050565b6000819050919050565b6200021783620001da565b6200022f620002268262000202565b84845462000170565b825550505050565b600090565b6200024662000237565b620002538184846200020c565b505050565b5b818110156200027b576200026f6000826200023c565b60018101905062000259565b5050565b601f821115620002ca5762000294816200013e565b6200029f8462000153565b81016020851015620002af578190505b620002c7620002be8562000153565b83018262000258565b50505b505050565b600082821c905092915050565b6000620002ef60001984600802620002cf565b1980831691505092915050565b60006200030a8383620002dc565b9150826002028217905092915050565b6200032582620000a0565b67ffffffffffffffff811115620003415762000340620000ab565b5b6200034d825462000109565b6200035a8282856200027f565b600060209050601f8311600181146200039257600084156200037d578287015190505b620003898582620002fc565b865550620003f9565b601f198416620003a2866200013e565b60005b82811015620003cc57848901518255600182019150602085019450602081019050620003a5565b86831015620003ec5784890151620003e8601f891682620002dc565b8355505b6001600288020188555050505b505050505050565b610bda80620004116000396000f3fe6080604052600436106100705760003560e01c806366605ba41161004e57806366605ba4146100e75780638da5cb5b14610110578063a6f9dae11461013b578063d0e30db01461016457610070565b806306fdde03146100755780631ad184ff146100a05780632e1a7d4d146100cb575b600080fd5b34801561008157600080fd5b5061008a61016e565b60405161009791906104d6565b60405180910390f35b3480156100ac57600080fd5b506100b56101fc565b6040516100c291906104d6565b60405180910390f35b6100e560048036038101906100e09190610542565b61028e565b005b3480156100f357600080fd5b5061010e600480360381019061010991906106a4565b6102ed565b005b34801561011c57600080fd5b50610125610300565b604051610132919061072e565b60405180910390f35b34801561014757600080fd5b50610162600480360381019061015d9190610775565b610326565b005b61016c6103fa565b005b6000805461017b906107d1565b80601f01602080910402602001604051908101604052809291908181526020018280546101a7906107d1565b80156101f45780601f106101c9576101008083540402835291602001916101f4565b820191906000526020600020905b8154815290600101906020018083116101d757829003601f168201915b505050505081565b60606000805461020b906107d1565b80601f0160208091040260200160405190810160405280929190818152602001828054610237906107d1565b80156102845780601f1061025957610100808354040283529160200191610284565b820191906000526020600020905b81548152906001019060200180831161026757829003601f168201915b5050505050905090565b67016345785d8a00008111156102a357600080fd5b3373ffffffffffffffffffffffffffffffffffffffff166108fc829081150290604051600060405180830381858888f193505050501580156102e9573d6000803e3d6000fd5b5050565b80600090816102fc91906109ae565b5050565b600160009054906101000a900473ffffffffffffffffffffffffffffffffffffffff1681565b600160009054906101000a900473ffffffffffffffffffffffffffffffffffffffff1673ffffffffffffffffffffffffffffffffffffffff163373ffffffffffffffffffffffffffffffffffffffff16146103b6576040517f08c379a00000000000000000000000000000000000000000000000000000000081526004016103ad90610af2565b60405180910390fd5b80600160006101000a81548173ffffffffffffffffffffffffffffffffffffffff021916908373ffffffffffffffffffffffffffffffffffffffff16021790555050565b662386f26fc10000341015610444576040517f08c379a000000000000000000000000000000000000000000000000000000000815260040161043b90610b84565b60405180910390fd5b565b600081519050919050565b600082825260208201905092915050565b60005b83811015610480578082015181840152602081019050610465565b60008484015250505050565b6000601f19601f8301169050919050565b60006104a882610446565b6104b28185610451565b93506104c2818560208601610462565b6104cb8161048c565b840191505092915050565b600060208201905081810360008301526104f0818461049d565b905092915050565b6000604051905090565b600080fd5b600080fd5b6000819050919050565b61051f8161050c565b811461052a57600080fd5b50565b60008135905061053c81610516565b92915050565b60006020828403121561055857610557610502565b5b60006105668482850161052d565b91505092915050565b600080fd5b600080fd5b7f4e487b7100000000000000000000000000000000000000000000000000000000600052604160045260246000fd5b6105b18261048c565b810181811067ffffffffffffffff821117156105d0576105cf610579565b5b80604052505050565b60006105e36104f8565b90506105ef82826105a8565b919050565b600067ffffffffffffffff82111561060f5761060e610579565b5b6106188261048c565b9050602081019050919050565b82818337600083830152505050565b6000610647610642846105f4565b6105d9565b90508281526020810184848401111561066357610662610574565b5b61066e848285610625565b509392505050565b600082601f83011261068b5761068a61056f565b5b813561069b848260208601610634565b91505092915050565b6000602082840312156106ba576106b9610502565b5b600082013567ffffffffffffffff8111156106d8576106d7610507565b5b6106e484828501610676565b91505092915050565b600073ffffffffffffffffffffffffffffffffffffffff82169050919050565b6000610718826106ed565b9050919050565b6107288161070d565b82525050565b6000602082019050610743600083018461071f565b92915050565b6107528161070d565b811461075d57600080fd5b50565b60008135905061076f81610749565b92915050565b60006020828403121561078b5761078a610502565b5b600061079984828501610760565b91505092915050565b7f4e487b7100000000000000000000000000000000000000000000000000000000600052602260045260246000fd5b600060028204905060018216806107e957607f821691505b6020821081036107fc576107fb6107a2565b5b50919050565b60008190508160005260206000209050919050565b60006020601f8301049050919050565b600082821b905092915050565b6000600883026108647fffffffffffffffffffffffffffffffffffffffffffffffffffffffffffffffff82610827565b61086e8683610827565b95508019841693508086168417925050509392505050565b6000819050919050565b60006108ab6108a66108a18461050c565b610886565b61050c565b9050919050565b6000819050919050565b6108c583610890565b6108d96108d1826108b2565b848454610834565b825550505050565b600090565b6108ee6108e1565b6108f98184846108bc565b505050565b5b8181101561091d576109126000826108e6565b6001810190506108ff565b5050565b601f8211156109625761093381610802565b61093c84610817565b8101602085101561094b578190505b61095f61095785610817565b8301826108fe565b50505b505050565b600082821c905092915050565b600061098560001984600802610967565b1980831691505092915050565b600061099e8383610974565b9150826002028217905092915050565b6109b782610446565b67ffffffffffffffff8111156109d0576109cf610579565b5b6109da82546107d1565b6109e5828285610921565b600060209050601f831160018114610a185760008415610a06578287015190505b610a108582610992565b865550610a78565b601f198416610a2686610802565b60005b82811015610a4e57848901518255600182019150602085019450602081019050610a29565b86831015610a6b5784890151610a67601f891682610974565b8355505b6001600288020188555050505b505050505050565b7f746869732066756e6374696f6e20726571756972657320746865206f776e657260008201527f206f662074686520636f6e747261637420746f2072756e000000000000000000602082015250565b6000610adc603783610451565b9150610ae782610a80565b604082019050919050565b60006020820190508181036000830152610b0b81610acf565b9050919050565b7f796f75206e65656420746f2073656e64206174206c6561737420302e3031204560008201527f5448000000000000000000000000000000000000000000000000000000000000602082015250565b6000610b6e602283610451565b9150610b7982610b12565b604082019050919050565b60006020820190508181036000830152610b9d81610b61565b905091905056fea26469706673582212204853a1543bbff2982e556bbce252aa4cf124c52a4721cb85d4bed8f1a73be20664736f6c63430008110033",
  "immutableReferences": {},
  "source": "// SPDX-License-Identifier: MIT\r\n\r\npragma solidity ^0.8.17;\r\n\r\ncontract Sample {\r\n    string public name;\r\n    address public owner;\r\n\r\n    constructor() {\r\n        owner = msg.sender;\r\n        name = \"deployer\";\r\n    }\r\n\r\n    function rename(string memory _name) public {\r\n        name = _name;\r\n    }\r\n\r\n    function describe() public view returns (string memory) {\r\n        return (name);\r\n    }\r\n\r\n    modifier ownerOnly() {\r\n        require(\r\n            msg.sender == owner,\r\n            \"this function requires the owner of the contract to run\"\r\n        );\r\n        _;\r\n    }\r\n\r\n    function changeOwner(address _newOwner) public ownerOnly {\r\n        owner = _newOwner;\r\n    }\r\n\r\n    function deposit() public payable {\r\n        require(\r\n            msg.value >= 0.01 * 10 ** 18,\r\n            \"you need to send at least 0.01 ETH\"\r\n        );\r\n    }\r\n\r\n    function withdraw(uint256 _amount) public payable {\r\n        require(_amount <= 100000000000000000);\r\n        payable(msg.sender).transfer(_amount);\r\n    }\r\n}\r\n",
  "sourcePath": "C:\\Users\\Phensic002\\OneDrive\\Documents\\Truffle Unit Test\\contracts\\Sample.sol",
  "compiler": {
    "name": "solc",
    "version": "0.8.17+commit.8df45f5f.Emscripten.clang"
  },
  "schemaVersion": "3.4.10",
  "updatedAt": "2022-12-07T21:10:57.021Z",
  "devdoc": {
    "kind": "dev",
    "methods": {},
    "version": 1
  },
  "userdoc": {
    "kind": "user",
    "methods": {},
    "version": 1
  }
}