{
  "contractName": "sample",
  "abi": [
    {
      "inputs": [],
      "stateMutability": "nonpayable",
      "type": "constructor"
    },
    {
      "inputs": [],
      "name": "age",
      "outputs": [
        {
          "internalType": "uint256",
          "name": "",
          "type": "uint256"
        }
      ],
      "stateMutability": "view",
      "type": "function"
    },
    {
      "inputs": [],
      "name": "name",
      "outputs": [
        {
          "internalType": "string",
          "name": "",
          "type": "string"
        }
      ],
      "stateMutability": "view",
      "type": "function"
    },
    {
      "inputs": [],
      "name": "owner",
      "outputs": [
        {
          "internalType": "address",
          "name": "",
          "type": "address"
        }
      ],
      "stateMutability": "view",
      "type": "function"
    },
    {
      "inputs": [
        {
          "internalType": "string",
          "name": "_name",
          "type": "string"
        },
        {
          "internalType": "uint256",
          "name": "_number",
          "type": "uint256"
        }
      ],
      "name": "decribe",
      "outputs": [],
      "stateMutability": "nonpayable",
      "type": "function"
    },
    {
      "inputs": [],
      "name": "details",
      "outputs": [
        {
          "internalType": "string",
          "name": "",
          "type": "string"
        },
        {
          "internalType": "uint256",
          "name": "",
          "type": "uint256"
        }
      ],
      "stateMutability": "view",
      "type": "function"
    },
    {
      "inputs": [
        {
          "internalType": "address",
          "name": "_newOwner",
          "type": "address"
        }
      ],
      "name": "changeOwner",
      "outputs": [],
      "stateMutability": "nonpayable",
      "type": "function"
    },
    {
      "inputs": [],
      "name": "deposit",
      "outputs": [],
      "stateMutability": "payable",
      "type": "function"
    },
    {
      "inputs": [
        {
          "internalType": "uint256",
          "name": "_amount",
          "type": "uint256"
        }
      ],
      "name": "withdraw",
      "outputs": [],
      "stateMutability": "payable",
      "type": "function"
    }
  ],
  "bytecode": "0x60806040523480156200001157600080fd5b5033600160006101000a81548173ffffffffffffffffffffffffffffffffffffffff021916908373ffffffffffffffffffffffffffffffffffffffff1602179055506040518060400160405280601381526020017f636f6e74726163742773206465706c6f796572000000000000000000000000008152506000908162000099919062000322565b50601960028190555062000409565b600081519050919050565b7f4e487b7100000000000000000000000000000000000000000000000000000000600052604160045260246000fd5b7f4e487b7100000000000000000000000000000000000000000000000000000000600052602260045260246000fd5b600060028204905060018216806200012a57607f821691505b60208210810362000140576200013f620000e2565b5b50919050565b60008190508160005260206000209050919050565b60006020601f8301049050919050565b600082821b905092915050565b600060088302620001aa7fffffffffffffffffffffffffffffffffffffffffffffffffffffffffffffffff826200016b565b620001b686836200016b565b95508019841693508086168417925050509392505050565b6000819050919050565b6000819050919050565b600062000203620001fd620001f784620001ce565b620001d8565b620001ce565b9050919050565b6000819050919050565b6200021f83620001e2565b620002376200022e826200020a565b84845462000178565b825550505050565b600090565b6200024e6200023f565b6200025b81848462000214565b505050565b5b8181101562000283576200027760008262000244565b60018101905062000261565b5050565b601f821115620002d2576200029c8162000146565b620002a7846200015b565b81016020851015620002b7578190505b620002cf620002c6856200015b565b83018262000260565b50505b505050565b600082821c905092915050565b6000620002f760001984600802620002d7565b1980831691505092915050565b6000620003128383620002e4565b9150826002028217905092915050565b6200032d82620000a8565b67ffffffffffffffff811115620003495762000348620000b3565b5b62000355825462000111565b6200036282828562000287565b600060209050601f8311600181146200039a576000841562000385578287015190505b62000391858262000304565b86555062000401565b601f198416620003aa8662000146565b60005b82811015620003d457848901518255600182019150602085019450602081019050620003ad565b86831015620003f45784890151620003f0601f891682620002e4565b8355505b6001600288020188555050505b505050505050565b610c9680620004196000396000f3fe60806040526004361061007b5760003560e01c80637697adee1161004e5780637697adee1461011e5780638da5cb5b14610147578063a6f9dae114610172578063d0e30db01461019b5761007b565b806306fdde0314610080578063262a9dff146100ab5780632e1a7d4d146100d6578063565974d3146100f2575b600080fd5b34801561008c57600080fd5b506100956101a5565b6040516100a29190610525565b60405180910390f35b3480156100b757600080fd5b506100c0610233565b6040516100cd9190610560565b60405180910390f35b6100f060048036038101906100eb91906105bb565b610239565b005b3480156100fe57600080fd5b50610107610298565b6040516101159291906105e8565b60405180910390f35b34801561012a57600080fd5b506101456004803603810190610140919061074d565b610334565b005b34801561015357600080fd5b5061015c61034f565b60405161016991906107ea565b60405180910390f35b34801561017e57600080fd5b5061019960048036038101906101949190610831565b610375565b005b6101a3610449565b005b600080546101b29061088d565b80601f01602080910402602001604051908101604052809291908181526020018280546101de9061088d565b801561022b5780601f106102005761010080835404028352916020019161022b565b820191906000526020600020905b81548152906001019060200180831161020e57829003601f168201915b505050505081565b60025481565b67016345785d8a000081111561024e57600080fd5b3373ffffffffffffffffffffffffffffffffffffffff166108fc829081150290604051600060405180830381858888f19350505050158015610294573d6000803e3d6000fd5b5050565b60606000806002548180546102ac9061088d565b80601f01602080910402602001604051908101604052809291908181526020018280546102d89061088d565b80156103255780601f106102fa57610100808354040283529160200191610325565b820191906000526020600020905b81548152906001019060200180831161030857829003601f168201915b50505050509150915091509091565b81600090816103439190610a6a565b50806002819055505050565b600160009054906101000a900473ffffffffffffffffffffffffffffffffffffffff1681565b600160009054906101000a900473ffffffffffffffffffffffffffffffffffffffff1673ffffffffffffffffffffffffffffffffffffffff163373ffffffffffffffffffffffffffffffffffffffff1614610405576040517f08c379a00000000000000000000000000000000000000000000000000000000081526004016103fc90610bae565b60405180910390fd5b80600160006101000a81548173ffffffffffffffffffffffffffffffffffffffff021916908373ffffffffffffffffffffffffffffffffffffffff16021790555050565b662386f26fc10000341015610493576040517f08c379a000000000000000000000000000000000000000000000000000000000815260040161048a90610c40565b60405180910390fd5b565b600081519050919050565b600082825260208201905092915050565b60005b838110156104cf5780820151818401526020810190506104b4565b60008484015250505050565b6000601f19601f8301169050919050565b60006104f782610495565b61050181856104a0565b93506105118185602086016104b1565b61051a816104db565b840191505092915050565b6000602082019050818103600083015261053f81846104ec565b905092915050565b6000819050919050565b61055a81610547565b82525050565b60006020820190506105756000830184610551565b92915050565b6000604051905090565b600080fd5b600080fd5b61059881610547565b81146105a357600080fd5b50565b6000813590506105b58161058f565b92915050565b6000602082840312156105d1576105d0610585565b5b60006105df848285016105a6565b91505092915050565b6000604082019050818103600083015261060281856104ec565b90506106116020830184610551565b9392505050565b600080fd5b600080fd5b7f4e487b7100000000000000000000000000000000000000000000000000000000600052604160045260246000fd5b61065a826104db565b810181811067ffffffffffffffff8211171561067957610678610622565b5b80604052505050565b600061068c61057b565b90506106988282610651565b919050565b600067ffffffffffffffff8211156106b8576106b7610622565b5b6106c1826104db565b9050602081019050919050565b82818337600083830152505050565b60006106f06106eb8461069d565b610682565b90508281526020810184848401111561070c5761070b61061d565b5b6107178482856106ce565b509392505050565b600082601f83011261073457610733610618565b5b81356107448482602086016106dd565b91505092915050565b6000806040838503121561076457610763610585565b5b600083013567ffffffffffffffff8111156107825761078161058a565b5b61078e8582860161071f565b925050602061079f858286016105a6565b9150509250929050565b600073ffffffffffffffffffffffffffffffffffffffff82169050919050565b60006107d4826107a9565b9050919050565b6107e4816107c9565b82525050565b60006020820190506107ff60008301846107db565b92915050565b61080e816107c9565b811461081957600080fd5b50565b60008135905061082b81610805565b92915050565b60006020828403121561084757610846610585565b5b60006108558482850161081c565b91505092915050565b7f4e487b7100000000000000000000000000000000000000000000000000000000600052602260045260246000fd5b600060028204905060018216806108a557607f821691505b6020821081036108b8576108b761085e565b5b50919050565b60008190508160005260206000209050919050565b60006020601f8301049050919050565b600082821b905092915050565b6000600883026109207fffffffffffffffffffffffffffffffffffffffffffffffffffffffffffffffff826108e3565b61092a86836108e3565b95508019841693508086168417925050509392505050565b6000819050919050565b600061096761096261095d84610547565b610942565b610547565b9050919050565b6000819050919050565b6109818361094c565b61099561098d8261096e565b8484546108f0565b825550505050565b600090565b6109aa61099d565b6109b5818484610978565b505050565b5b818110156109d9576109ce6000826109a2565b6001810190506109bb565b5050565b601f821115610a1e576109ef816108be565b6109f8846108d3565b81016020851015610a07578190505b610a1b610a13856108d3565b8301826109ba565b50505b505050565b600082821c905092915050565b6000610a4160001984600802610a23565b1980831691505092915050565b6000610a5a8383610a30565b9150826002028217905092915050565b610a7382610495565b67ffffffffffffffff811115610a8c57610a8b610622565b5b610a96825461088d565b610aa18282856109dd565b600060209050601f831160018114610ad45760008415610ac2578287015190505b610acc8582610a4e565b865550610b34565b601f198416610ae2866108be565b60005b82811015610b0a57848901518255600182019150602085019450602081019050610ae5565b86831015610b275784890151610b23601f891682610a30565b8355505b6001600288020188555050505b505050505050565b7f746869732066756e6374696f6e20726571756972657320746865206f776e657260008201527f206f662074686520636f6e747261637420746f2072756e000000000000000000602082015250565b6000610b986037836104a0565b9150610ba382610b3c565b604082019050919050565b60006020820190508181036000830152610bc781610b8b565b9050919050565b7f796f75206e65656420746f2073656e64206174206c6561737420302e3031204560008201527f5448000000000000000000000000000000000000000000000000000000000000602082015250565b6000610c2a6022836104a0565b9150610c3582610bce565b604082019050919050565b60006020820190508181036000830152610c5981610c1d565b905091905056fea26469706673582212202fced0dc95a022ebad89ddf2c08dc04bdefb25155257f25915b301a317379be864736f6c63430008110033",
  "immutableReferences": {},
  "source": "// SPDX-License-Identifier: MIT\r\n\r\npragma solidity ^0.8.17;\r\n\r\ncontract sample {\r\n    string public name;\r\n    address public owner;\r\n    uint256 public age;\r\n\r\n    constructor() {\r\n        owner = msg.sender;\r\n        name = \"contract's deployer\";\r\n        age = 25;\r\n    }\r\n\r\n    function decribe(string memory _name, uint256 _number) public {\r\n        name = _name;\r\n        age = _number;\r\n    }\r\n\r\n    function details() public view returns (string memory, uint256) {\r\n        return (name, age);\r\n    }\r\n\r\n    modifier ownerOnly() {\r\n        require(\r\n            msg.sender == owner,\r\n            \"this function requires the owner of the contract to run\"\r\n        );\r\n        _;\r\n    }\r\n\r\n    function changeOwner(address _newOwner) public ownerOnly {\r\n        owner = _newOwner;\r\n    }\r\n\r\n    function deposit() public payable {\r\n        require(\r\n            msg.value >= 0.01 * 10 ** 18,\r\n            \"you need to send at least 0.01 ETH\"\r\n        );\r\n    }\r\n\r\n    function withdraw(uint256 _amount) public payable {\r\n        require(_amount <= 100000000000000000);\r\n        payable(msg.sender).transfer(_amount);\r\n    }\r\n}\r\n",
  "sourcePath": "C:\\Users\\Phensic002\\OneDrive\\Documents\\Truffle Unit Test\\contracts\\Sample.sol",
  "compiler": {
    "name": "solc",
    "version": "0.8.17+commit.8df45f5f.Emscripten.clang"
  },
  "schemaVersion": "3.4.10",
  "updatedAt": "2022-12-01T01:27:45.682Z",
  "devdoc": {
    "kind": "dev",
    "methods": {},
    "version": 1
  },
  "userdoc": {
    "kind": "user",
    "methods": {},
    "version": 1
  }
}